{
  "contractName": "FlightSuretyData",
  "abi": [
    {
      "constant": true,
      "inputs": [],
      "name": "airlineCounter",
      "outputs": [
        {
          "name": "",
          "type": "uint256"
        }
      ],
      "payable": false,
      "stateMutability": "view",
      "type": "function"
    },
    {
      "inputs": [],
      "payable": false,
      "stateMutability": "nonpayable",
      "type": "constructor"
    },
    {
      "payable": true,
      "stateMutability": "payable",
      "type": "fallback"
    },
    {
      "constant": true,
      "inputs": [],
      "name": "isOperational",
      "outputs": [
        {
          "name": "",
          "type": "bool"
        }
      ],
      "payable": false,
      "stateMutability": "view",
      "type": "function"
    },
    {
      "constant": false,
      "inputs": [
        {
          "name": "mode",
          "type": "bool"
        }
      ],
      "name": "setOperatingStatus",
      "outputs": [],
      "payable": false,
      "stateMutability": "nonpayable",
      "type": "function"
    },
    {
      "constant": false,
      "inputs": [
        {
          "name": "_airlineName",
          "type": "string"
        },
        {
          "name": "_airlineAddress",
          "type": "address"
        },
        {
          "name": "_senderAddress",
          "type": "address"
        }
      ],
      "name": "registerAirline",
      "outputs": [],
      "payable": false,
      "stateMutability": "nonpayable",
      "type": "function"
    },
    {
      "constant": true,
      "inputs": [
        {
          "name": "_airlineAddress",
          "type": "address"
        }
      ],
      "name": "getAirline",
      "outputs": [
        {
          "name": "airlineName",
          "type": "string"
        },
        {
          "name": "isRegistered",
          "type": "uint256"
        },
        {
          "name": "isFunded",
          "type": "uint256"
        },
        {
          "name": "fundedAmount",
          "type": "uint256"
        }
      ],
      "payable": false,
      "stateMutability": "view",
      "type": "function"
    },
    {
      "constant": true,
      "inputs": [
        {
          "name": "_airlineAddress",
          "type": "address"
        }
      ],
      "name": "getSampleDataAirline",
      "outputs": [
        {
          "name": "airlineName",
          "type": "string"
        }
      ],
      "payable": false,
      "stateMutability": "view",
      "type": "function"
    },
    {
      "constant": true,
      "inputs": [
        {
          "name": "_passengerAddress",
          "type": "address"
        }
      ],
      "name": "getInsurance",
      "outputs": [
        {
          "name": "airlineName",
          "type": "uint256"
        },
        {
          "name": "isRegistered",
          "type": "uint256"
        },
        {
          "name": "isFunded",
          "type": "uint256"
        },
        {
          "name": "fundedAmount",
          "type": "uint256"
        }
      ],
      "payable": false,
      "stateMutability": "view",
      "type": "function"
    },
    {
      "constant": false,
      "inputs": [],
      "name": "getAirlineCounter",
      "outputs": [
        {
          "name": "",
          "type": "uint256"
        }
      ],
      "payable": false,
      "stateMutability": "nonpayable",
      "type": "function"
    },
    {
      "constant": false,
      "inputs": [
        {
          "name": "flightId",
          "type": "uint256"
        },
        {
          "name": "flightTime",
          "type": "uint256"
        },
        {
          "name": "_sender",
          "type": "address"
        }
      ],
      "name": "buy",
      "outputs": [],
      "payable": false,
      "stateMutability": "nonpayable",
      "type": "function"
    },
    {
      "constant": false,
      "inputs": [],
      "name": "creditInsurees",
      "outputs": [],
      "payable": false,
      "stateMutability": "nonpayable",
      "type": "function"
    },
    {
      "constant": false,
      "inputs": [
        {
          "name": "payoutAddress",
          "type": "address"
        }
      ],
      "name": "pay",
      "outputs": [],
      "payable": false,
      "stateMutability": "nonpayable",
      "type": "function"
    },
    {
      "constant": false,
      "inputs": [
        {
          "name": "_sender",
          "type": "address"
        }
      ],
      "name": "fund",
      "outputs": [],
      "payable": true,
      "stateMutability": "payable",
      "type": "function"
    }
  ],
  "bytecode": "0x608060405260008055600180556001600560146101000a81548160ff02191690831515021790555034801561003357600080fd5b5033600560006101000a81548173ffffffffffffffffffffffffffffffffffffffff021916908373ffffffffffffffffffffffffffffffffffffffff1602179055506112bf806100846000396000f3006080604052600436106100ba576000357c0100000000000000000000000000000000000000000000000000000000900463ffffffff1680630c11dedd146100bc5780630dd20d43146100ff578063110466ed1461012a5780631677c500146101595780632019100f146101c5578063230244081461028157806336cee484146102b757806359a87bc1146102ce5780638400729e14610325578063cd905dff146103ce578063e1de0489146103fd578063f3f55bd7146104ce575b005b3480156100c857600080fd5b506100fd600480360381019080803573ffffffffffffffffffffffffffffffffffffffff1690602001909291905050506104f9565b005b34801561010b57600080fd5b506101146105ea565b6040518082815260200191505060405180910390f35b34801561013657600080fd5b506101576004803603810190808035151590602001909291905050506105f3565b005b34801561016557600080fd5b5061019a600480360381019080803573ffffffffffffffffffffffffffffffffffffffff1690602001909291905050506106d5565b6040518085815260200184815260200183815260200182815260200194505050505060405180910390f35b3480156101d157600080fd5b50610206600480360381019080803573ffffffffffffffffffffffffffffffffffffffff16906020019092919050505061077c565b6040518080602001828103825283818151815260200191508051906020019080838360005b8381101561024657808201518184015260208101905061022b565b50505050905090810190601f1680156102735780820380516001836020036101000a031916815260200191505b509250505060405180910390f35b6102b5600480360381019080803573ffffffffffffffffffffffffffffffffffffffff1690602001909291905050506108a0565b005b3480156102c357600080fd5b506102cc610932565b005b3480156102da57600080fd5b506103236004803603810190808035906020019092919080359060200190929190803573ffffffffffffffffffffffffffffffffffffffff16906020019092919050505061097c565b005b34801561033157600080fd5b506103cc600480360381019080803590602001908201803590602001908080601f0160208091040260200160405190810160405280939291908181526020018383808284378201915050505050509192919290803573ffffffffffffffffffffffffffffffffffffffff169060200190929190803573ffffffffffffffffffffffffffffffffffffffff169060200190929190505050610bce565b005b3480156103da57600080fd5b506103e3611020565b604051808215151515815260200191505060405180910390f35b34801561040957600080fd5b5061043e600480360381019080803573ffffffffffffffffffffffffffffffffffffffff169060200190929190505050611037565b6040518080602001858152602001848152602001838152602001828103825286818151815260200191508051906020019080838360005b83811015610490578082015181840152602081019050610475565b50505050905090810190601f1680156104bd5780820380516001836020036101000a031916815260200191505b509550505050505060405180910390f35b3480156104da57600080fd5b506104e361117a565b6040518082815260200191505060405180910390f35b60006714d1120d7b16000090506001600360008473ffffffffffffffffffffffffffffffffffffffff1673ffffffffffffffffffffffffffffffffffffffff1681526020019081526020016000206003015414151561055757600080fd5b8173ffffffffffffffffffffffffffffffffffffffff166108fc829081150290604051600060405180830381858888f1935050505015801561059d573d6000803e3d6000fd5b506000600360008473ffffffffffffffffffffffffffffffffffffffff1673ffffffffffffffffffffffffffffffffffffffff168152602001908152602001600020600301819055505050565b60008054905090565b600560009054906101000a900473ffffffffffffffffffffffffffffffffffffffff1673ffffffffffffffffffffffffffffffffffffffff163373ffffffffffffffffffffffffffffffffffffffff161415156106b8576040517f08c379a000000000000000000000000000000000000000000000000000000000815260040180806020018281038252601c8152602001807f43616c6c6572206973206e6f7420636f6e7472616374206f776e65720000000081525060200191505060405180910390fd5b80600560146101000a81548160ff02191690831515021790555050565b6000806000806106e361119c565b600360008773ffffffffffffffffffffffffffffffffffffffff1673ffffffffffffffffffffffffffffffffffffffff16815260200190815260200160002060806040519081016040529081600082015481526020016001820154815260200160028201548152602001600382015481525050905080600001518160200151826040015183606001519450945094509450509193509193565b60606107866111c5565b600260008473ffffffffffffffffffffffffffffffffffffffff1673ffffffffffffffffffffffffffffffffffffffff16815260200190815260200160002060806040519081016040529081600082018054600181600116156101000203166002900480601f01602080910402602001604051908101604052809291908181526020018280546001816001161561010002031660029004801561086a5780601f1061083f5761010080835404028352916020019161086a565b820191906000526020600020905b81548152906001019060200180831161084d57829003601f168201915b50505050508152602001600182015481526020016002820154815260200160038201548152505090508060000151915050919050565b6001600260008373ffffffffffffffffffffffffffffffffffffffff1673ffffffffffffffffffffffffffffffffffffffff1681526020019081526020016000206002018190555034600260008373ffffffffffffffffffffffffffffffffffffffff1673ffffffffffffffffffffffffffffffffffffffff1681526020019081526020016000206003018190555050565b6001600360003373ffffffffffffffffffffffffffffffffffffffff1673ffffffffffffffffffffffffffffffffffffffff16815260200190815260200160002060030181905550565b61098461119c565b600154816000018181525050838160200181815250508281604001818152505060008160600181815250506109c46001805461118090919063ffffffff16565b60018190555061038584141515610a43576040517f08c379a000000000000000000000000000000000000000000000000000000000815260040180806020018281038252601a8152602001807f464c69676874206964206e6f7420657175616c20746f2039303100000000000081525060200191505060405180910390fd5b61051483141515610abc576040517f08c379a00000000000000000000000000000000000000000000000000000000081526004018080602001828103825260208152602001807f464c696768742074696d65206973206e6f7420657175616c20746f203133303081525060200191505060405180910390fd5b73411468c790297933f75d2e9d5495371ba70d49698273ffffffffffffffffffffffffffffffffffffffff16141515610b5d576040517f08c379a00000000000000000000000000000000000000000000000000000000081526004018080602001828103825260208152602001807f50617373656e6765722061646472657373206973206e6f7420636f727265637481525060200191505060405180910390fd5b80600360008473ffffffffffffffffffffffffffffffffffffffff1673ffffffffffffffffffffffffffffffffffffffff1681526020019081526020016000206000820151816000015560208201518160010155604082015181600201556060820151816003015590505050505050565b610bd66111c5565b608060405190810160405280858152602001600181526020016000815260200160008152509050600080541415610ca65780600260008573ffffffffffffffffffffffffffffffffffffffff1673ffffffffffffffffffffffffffffffffffffffff1681526020019081526020016000206000820151816000019080519060200190610c639291906111ee565b50602082015181600101556040820151816002015560608201518160030155905050610c9b600160005461118090919063ffffffff16565b60008190555061101a565b6001600054148015610cbb5750600260005411155b15610e3f576001600260008473ffffffffffffffffffffffffffffffffffffffff1673ffffffffffffffffffffffffffffffffffffffff16815260200190815260200160002060010154141515610da0576040517f08c379a00000000000000000000000000000000000000000000000000000000081526004018080602001828103825260298152602001807f53656e646572206e6f7420617574686f72697a656420746f207265676973746581526020017f72206169726c696e65000000000000000000000000000000000000000000000081525060400191505060405180910390fd5b80600260008573ffffffffffffffffffffffffffffffffffffffff1673ffffffffffffffffffffffffffffffffffffffff1681526020019081526020016000206000820151816000019080519060200190610dfc9291906111ee565b50602082015181600101556040820151816002015560608201518160030155905050610e34600160005461118090919063ffffffff16565b600081905550611019565b6001600260008473ffffffffffffffffffffffffffffffffffffffff1673ffffffffffffffffffffffffffffffffffffffff168152602001908152602001600020600101541415610f2e57600460008473ffffffffffffffffffffffffffffffffffffffff1673ffffffffffffffffffffffffffffffffffffffff1681526020019081526020016000208290806001815401808255809150509060018203906000526020600020016000909192909190916101000a81548173ffffffffffffffffffffffffffffffffffffffff021916908373ffffffffffffffffffffffffffffffffffffffff160217905550505b6000546002600460008673ffffffffffffffffffffffffffffffffffffffff1673ffffffffffffffffffffffffffffffffffffffff168152602001908152602001600020805490500211156110185780600260008573ffffffffffffffffffffffffffffffffffffffff1673ffffffffffffffffffffffffffffffffffffffff1681526020019081526020016000206000820151816000019080519060200190610fd99291906111ee565b50602082015181600101556040820151816002015560608201518160030155905050611011600160005461118090919063ffffffff16565b6000819055505b5b5b50505050565b6000600560149054906101000a900460ff16905090565b606060008060006110466111c5565b600260008773ffffffffffffffffffffffffffffffffffffffff1673ffffffffffffffffffffffffffffffffffffffff16815260200190815260200160002060806040519081016040529081600082018054600181600116156101000203166002900480601f01602080910402602001604051908101604052809291908181526020018280546001816001161561010002031660029004801561112a5780601f106110ff5761010080835404028352916020019161112a565b820191906000526020600020905b81548152906001019060200180831161110d57829003601f168201915b505050505081526020016001820154815260200160028201548152602001600382015481525050905080600001518160200151826040015183606001518393509450945094509450509193509193565b60005481565b6000818301905082811015151561119357fe5b80905092915050565b608060405190810160405280600081526020016000815260200160008152602001600081525090565b608060405190810160405280606081526020016000815260200160008152602001600081525090565b828054600181600116156101000203166002900490600052602060002090601f016020900481019282601f1061122f57805160ff191683800117855561125d565b8280016001018555821561125d579182015b8281111561125c578251825591602001919060010190611241565b5b50905061126a919061126e565b5090565b61129091905b8082111561128c576000816000905550600101611274565b5090565b905600a165627a7a72305820b21d56e8f58682b571b96b78650f6f8a4c1c509ef96db54c3a83c9a54a6b09b40029",
  "source": "pragma solidity ^0.4.25;\n\nimport \"../node_modules/openzeppelin-solidity/contracts/math/SafeMath.sol\";\n\ncontract FlightSuretyData {\n    using SafeMath for uint256;\n\n    /********************************************************************************************/\n    /*                                       DATA VARIABLES                                     */\n    /********************************************************************************************/\n\t\n\tstruct Insurance {\n\n\t\tuint insuranceNo;\n\t\tuint flightId;\n\t\tuint flightTime;\n\t\tuint payoutApplicable;\t\n\t}\t\n\n\n\n    struct Airline {\n\t\t\tstring airlineName;\n\t\t\tuint isRegistered;\n\t\t\tuint isFunded;\n\t\t\tuint fundedAmount;\n   }\n\t\n\tuint public airlineCounter=0;\n\t\n\tuint private insuranceId=1;\n\t\t\n\t\n\t  // Define a public mapping 'items' that maps the airline details to airlineaddress.\n    mapping (address => Airline) airlines;\n  \n  \n  \t  // Define a public mapping 'items' that maps the passenger address  details to insurance purchased by him.\n    mapping (address => Insurance) insureeMappping;\n\t\n\tmapping(address => address[]) votes;\t\t\t\t// Votes for multi-party consensus\n\n    address private contractOwner;                                      // Account used to deploy contract\n    bool private operational = true;                                    // Blocks all state changes throughout the contract if false\n\n    /********************************************************************************************/\n    /*                                       EVENT DEFINITIONS                                  */\n    /********************************************************************************************/\n\n\n    /**\n    * @dev Constructor\n    *      The deploying account becomes contractOwner\n    */\n    constructor() public \n    {\n        contractOwner = msg.sender;\n\t\t\n\t}\n\n    /********************************************************************************************/\n    /*                                       FUNCTION MODIFIERS                                 */\n    /********************************************************************************************/\n\n    // Modifiers help avoid duplication of code. They are typically used to validate something\n    // before a function is allowed to be executed.\n\n    /**\n    * @dev Modifier that requires the \"operational\" boolean variable to be \"true\"\n    *      This is used on all state changing functions to pause the contract in \n    *      the event there is an issue that needs to be fixed\n    */\n    modifier requireIsOperational() \n    {\n        require(operational, \"Contract is currently not operational\");\n        _;  // All modifiers require an \"_\" which indicates where the function body will be added\n    }\n\n    /**\n    * @dev Modifier that requires the \"ContractOwner\" account to be the function caller\n    */\n    modifier requireContractOwner()\n    {\n        require(msg.sender == contractOwner, \"Caller is not contract owner\");\n        _;\n    }\n\n    /********************************************************************************************/\n    /*                                       UTILITY FUNCTIONS                                  */\n    /********************************************************************************************/\n\n    /**\n    * @dev Get operating status of contract\n    *\n    * @return A bool that is the current operating status\n    */      \n    function isOperational() \n                            public \n                            view \n                            returns(bool) \n    {\n        return operational;\n    }\n\n\n    /**\n    * @dev Sets contract operations on/off\n    *\n    * When operational mode is disabled, all write transactions except for this one will fail\n    */    \n    function setOperatingStatus\n                            (\n                                bool mode\n                            ) \n                            external\n                            requireContractOwner \n    {\n        operational = mode;\n    }\n\n    /********************************************************************************************/\n    /*                                     SMART CONTRACT FUNCTIONS                             */\n    /********************************************************************************************/\n\n   /**\n    * @dev Add an airline to the registration queue\n    *      Can only be called from FlightSuretyApp contract\n    *\n    */   \n    function registerAirline ( string _airlineName, address _airlineAddress, address _senderAddress) \n    {\n\t\tAirline memory airline=  Airline(_airlineName,1,0,0);\n\n\t// Validation is not required while registering first airline\n\t\tif(airlineCounter==0)\n\t\t{\n\t\tairlines[_airlineAddress] = airline;\n        airlineCounter=airlineCounter.add(1);\n\t\t}\n\t\t\n\t\t\n\t// Validation that only registered airline can register a new airline\n\t\telse if (airlineCounter==1 && airlineCounter<=2) {\n\t\trequire(airlines[_senderAddress].isRegistered==1,\"Sender not authorized to register airline\");\n\t\t\n\t\tairlines[_airlineAddress] = airline;\n        airlineCounter=airlineCounter.add(1);\n\t\t}\n\t\t\n\t// validation that 50% of registered airlines have voted for registration of new airline\n\t else{\n\t\t  if(airlines[_senderAddress].isRegistered==1)\n\t\t    votes[_airlineAddress].push(_senderAddress);\n\t\t\t\n\t\t  if(((votes[_airlineAddress].length)*2)>airlineCounter) {\n\t\t\tairlines[_airlineAddress] = airline;\n\t\t\tairlineCounter=airlineCounter.add(1);\n\t\t\t\n\t\t  }\n\t\t}\n      }\n\n\t\n\n\t   /**\n    * Get airline method\n    *\n    */ \n\n\tfunction getAirline(address _airlineAddress) public view returns (string airlineName, uint isRegistered,uint isFunded, uint fundedAmount)\n\t{\n\t\n\t\tAirline memory i = airlines[_airlineAddress];\n\t\treturn (\n\t\t\ti.airlineName,\n\t\t\ti.isRegistered,\n\t\t\ti.isFunded,\n\t\t\ti.fundedAmount);\n\t\n\t}\n\n\n\n\tfunction getSampleDataAirline(address _airlineAddress) public view returns (string airlineName)\n\t{\n\t\n\t\tAirline memory i = airlines[_airlineAddress];\n\t\tairlineName=i.airlineName;\n\t\t\n\t}\n\t\t   /**\n    * Get insurance method\n    *\n    */ \n\n\tfunction getInsurance(address _passengerAddress) public view returns (uint airlineName, uint isRegistered,uint isFunded, uint fundedAmount)\n\t{\n\t\n\t\tInsurance memory i = insureeMappping[_passengerAddress];\n\t\treturn (\n\t\t\ti.insuranceNo,\n\t\t\ti.flightId,\n\t\t\ti.flightTime,\n\t\t\ti.payoutApplicable);\n\t\n\t}\n\t\n\t\t\t   /**\n    * Get airline counter \n    *\n    */\n\n\t function getAirlineCounter () returns (uint)\n    {\n        return airlineCounter;\n    }\n\n   \n    /**\n    * @dev Buy insurance for a flight\n    *\n    */   \n    function buy\n                            (   \n\n\t\t\t\t\t\t\tuint flightId,\n\t\t\t\t\t\t\tuint flightTime,\n\t\t\t\t\t\t\taddress _sender\n                            )\n                                                 \n    {\n\n\n\t Insurance memory i;\n\t i.insuranceNo= insuranceId;\n\t i.flightId=flightId;\n\t i.flightTime=flightTime;\n\t i.payoutApplicable=0;\n\t insuranceId=insuranceId.add(1);\n\t require(flightId==901,\"FLight id not equal to 901\");\n\t require(flightTime==1300,\"FLight time is not equal to 1300\");\n\t require(_sender==0x411468c790297933f75d2e9d5495371ba70d4969,\"Passenger address is not correct\");\n\t insureeMappping[_sender]=i;\n\t \n\t }\n\n    /**\n     *  @dev Credits payouts to insurees\n    */\n    function creditInsurees\n                                (\n\t\t\t\t\t\t\t\t\n                                )\n                                external\n                                \n    {\n\t\tinsureeMappping[msg.sender].payoutApplicable=1;\n\t}\n    \n\n    /**\n     *  @dev Transfers eligible payout funds to insuree\n     *\n    */\n    function pay\n                            (\n\t\t\t\t\t\t\t address payoutAddress\n                            )\n                            external\n                            \n    {\n\t\n\t\tuint payoutAmount = 1.5 ether;\n\t\trequire(insureeMappping[payoutAddress].payoutApplicable==1);\n\t\tpayoutAddress.transfer(payoutAmount);\n\t\tinsureeMappping[payoutAddress].payoutApplicable=0;\n\t\t\n\n    }\n\n   /**\n    * @dev Initial funding for the insurance. Unless there are too many delayed flights\n    *      resulting in insurance payouts, the contract should be self-sustaining\n    *\n    */   \n    function fund\n                            ( \n\t\t\t\t\t\t\taddress _sender\t\t\n                            )\n                            public\n                            payable\n    { \n\t airlines[_sender].isFunded = 1;\n\t airlines[_sender].fundedAmount = msg.value;\n\t\n    }\n\t\n\t\n\n\n    function getFlightKey\n                        (\n                            address airline,\n                            string memory flight,\n                            uint256 timestamp\n                        )\n                        pure\n                        internal\n                        returns(bytes32) \n    {\n        return keccak256(abi.encodePacked(airline, flight, timestamp));\n    }\n\t\n\t\n\n\t\n\t\n\t\n\t\n\t\n\n    /**\n    * @dev Fallback function for funding smart contract.\n    *\n    */\n    function() \n                            external \n                            payable \n    {\n       // fund();\n    }\n\n\n\n\n}\n\n",
  "sourcePath": "D:\\Term2\\FlightSurety-master_v1.0\\contracts\\FlightSuretyData.sol",
  "compiler": {
    "name": "solc",
    "version": "0.4.25+commit.59dbf8f1.Emscripten.clang"
  },
  "schemaVersion": "2.0.2",
  "updatedAt": "2019-06-06T17:09:24.333Z"
}